:100000008500808500908500A08500B075B0011244
:10001000001B75B00012001B80F22212004012007B
:1000200040120040120040120040120040120040F6
:100030001200401200401200401200401200402204
:100040007590C01200627590F91200627590A4124A
:1000500000627590B01200627590991200627590FE
:1000600092227580C012009F7580F912009F7580E2
:10007000A412009F7580B012009F75809912009F96
:1000800075809212009F75808212009F7580F81211
:10009000009F75808012009F75809012009F221231
:1000A00000B21200B21200B21200B21200B212007C
:1000B000B2221200D11200D11200D11200D11200CE
:1000C000D11200D11200D11200D11200D11200D1F0
:1000D0002275A0011200DA75A00078FF79FF00D91F
:0400E000FDD8F9222C
:00000001FF
